:100000000C942A000C9447000C9447000C94470071
:100010000C9447000C94AE090C946E0A0C944700A3
:100020000C9447000C9447000C94320A0C94F0098D
:100030000C9447000C9447000C9447000C94470024
:100040000C9447000C9447000C9447000C94470014
:100050000C94470011241FBECFE5D8E0DEBFCDBF12
:1000600011E0A0E6B0E0EEE3FBE202C005900D92E5
:10007000A63BB107D9F711E0A6EBB1E001C01D9294
:10008000A63CB107E1F70E9471130C949D150C94E6
:100090000000EF92FF920F931F937B018C0120E0F1
:1000A00030E040E05FE40E94F50388238CF0C80153
:1000B000B70120E030E040E05FE40E94C1010E940F
:1000C00055049B01AC01205030404040504806C0D0
:1000D000C801B7010E9455049B01AC01B901CA01D6
:1000E0001F910F91FF90EF900895A0E0B0E0EBE733
:1000F000F0E00C946615DC012B01FA019C91923022
:1001000008F439C1EB018881823008F433C194309E
:1001100069F4843009F02FC111969C91119789815F
:10012000981709F428C1ADE9B0E025C1843009F47D
:1001300021C18230A9F4923009F01DC19A01AD01AC
:1001400088E0EA010990AE01E90109929E0181501F
:10015000C1F7E201898111969C918923818308C1AD
:10016000923009F407C112962D903C901397EB0141
:100170008A819B811496AD90BD90CD90DC901797AD
:10018000EC80FD800E811F819101281B390BB90184
:1001900037FF04C066277727621B730B6032710537
:1001A0000CF061C0121613066CF537014801062EDB
:1001B00004C096948794779467940A94D2F721E0C8
:1001C00030E040E050E004C0220F331F441F551FB1
:1001D0006A95D2F721503040404050402E213F21B7
:1001E00040235123211531054105510521F021E01E
:1001F00030E040E050E079018A01E628F72808293C
:1002000019293CC0232BD1F1260E371E350146019A
:10021000062E04C096948794779467940A94D2F734
:1002200021E030E040E050E004C0220F331F441FC3
:10023000551F6A95D2F721503040404050402A2146
:100240003B214C215D21211531054105510521F04E
:1002500021E030E040E050E059016A01A628B728CB
:10026000C828D9280BC0821593052CF01C01AA249C
:10027000BB24650103C0EE24FF24870111969C91E5
:10028000D20111968C91981709F445C0992339F041
:10029000A80197012A193B094C095D0906C0A6016E
:1002A00095012E193F09400B510B57FD08C01182D3
:1002B0003382228224833583468357831DC081E0A5
:1002C00081833382228288279927DC01821B930B4A
:1002D000A40BB50B84839583A683B7830DC0220F2F
:1002E000331F441F551F24833583468357838281E0
:1002F000938101979383828324813581468157813D
:10030000DA01C9010197A109B1098F5F9F4FAF4F72
:10031000BF4328F30BC0918333822282EA0CFB1C7B
:100320000C1D1D1DE482F5820683178383E0808304
:10033000248135814681578157FF1AC0C901AA27F8
:1003400097FDA095BA2F81709070A070B0705695EF
:10035000479537952795822B932BA42BB52B848318
:100360009583A683B7838281938101969383828349
:10037000DF0101C0D201CD01CDB7DEB7E2E10C94BF
:100380008215A0E2B0E0E7ECF1E00C94721569830D
:100390007A838B839C832D833E834F835887E9E048
:1003A000EE2EF12CEC0EFD1ECE010196B7010E943F
:1003B00046068E010F5E1F4FCE010596B8010E94C2
:1003C00046068A8991E089278A8BC701B801AE0168
:1003D000475E5F4F0E9475000E947105A096E6E09F
:1003E0000C948E15A0E2B0E0E8EFF1E00C947215E9
:1003F00069837A838B839C832D833E834F835887C5
:10040000F9E0EF2EF12CEC0EFD1ECE010196B701A6
:100410000E9446068E010F5E1F4FCE010596B80161
:100420000E944606C701B801AE01475E5F4F0E94B9
:1004300075000E947105A096E6E00C948E15A0E26E
:10044000B0E0E5E2F2E00C94661569837A838B8371
:100450009C832D833E834F835887CE010196BE0136
:10046000675F7F4F0E944606CE010596BE016F5E14
:100470007F4F0E9446069985923088F089898230A4
:10048000C8F0943019F4823051F404C0843029F457
:10049000923081F48DE990E0C6C0923049F420E0BA
:1004A0009A858A89981321E02A87CE010996BBC0D4
:1004B000823049F420E09A858A89981321E02A8BBA
:1004C000CE014196B0C02D843E844F8458886D88FB
:1004D0007E888F88988CEE24FF248701AA24BB2471
:1004E000650140E050E060E070E0E0E0F0E0C10174
:1004F00081709070892BE9F0E60CF71C081D191D1E
:100500009A01AB012A0D3B1D4C1D5D1D80E090E062
:10051000A0E0B0E0E614F7040805190520F481E036
:1005200090E0A0E0B0E0BA01A901480F591F6A1F8E
:100530007B1FAA0CBB1CCC1CDD1C97FE08C081E0F5
:1005400090E0A0E0B0E0A82AB92ACA2ADB2A3196B6
:10055000E032F10549F0660C771C881C991C569412
:10056000479437942794C3CFFA85EA892B893C892D
:100570008B859C85280F391F2E5F3F4F17C0CA01FE
:1005800081709070892B61F016950795F794E79428
:1005900080E090E0A0E0B0E8E82AF92A0A2B1B2BC3
:1005A00076956795579547952F5F3F4F77FDE7CF36
:1005B0000CC0440F551F661F771F17FD4160EE0CDE
:1005C000FF1C001F111F21503040403090E05907A0
:1005D00090E0690790E4790760F32B8F3C8FDB0193
:1005E000CA018F779070A070B07080349105A1051A
:1005F000B10561F447FD0AC0E114F10401051105DC
:1006000029F0405C5F4F6F4F7F4F40781A8EFE1786
:1006100011F081E08A8F4D8F5E8F6F8F78A383E01A
:10062000898FCE0149960E947105A096E2E10C9453
:100630008215A8E1B0E0EFE1F3E00C946E15698358
:100640007A838B839C832D833E834F835887B9E0C5
:10065000EB2EF12CEC0EFD1ECE010196B7010E948F
:1006600046068E010F5E1F4FCE010596B8010E940F
:1006700046062985223008F47EC03989323010F4CC
:10068000B8017CC08A859A8989278A87243011F02D
:10069000223031F4231709F06EC06DE970E06EC0AE
:1006A000343039F41D861E861F86188A1C861B86E8
:1006B00004C0323021F484E08987B7015FC02B8504
:1006C0003C858B899C89281B390B3C872B87ED84C3
:1006D000FE840F851889AD88BE88CF88D88CEA142F
:1006E000FB040C051D0540F4EE0CFF1C001F111F40
:1006F000215030403C872B8720E030E040E050E044
:1007000080E090E0A0E0B0E460E070E0EA14FB0478
:100710000C051D0540F0282B392B4A2B5B2BEA18C2
:10072000FB080C091D09B695A79597958795EE0CC2
:10073000FF1C001F111F6F5F7F4F6F31710531F775
:10074000DA01C9018F779070A070B0708034910584
:10075000A105B10561F427FD0AC0E114F10401050A
:10076000110529F0205C3F4F4F4F5F4F20782D87B8
:100770003E874F87588BBE01675F7F4FCB010E943A
:1007800071056896EAE00C948A15A8E1B0E0EBECFC
:10079000F3E00C94721569837A838B839C832D8399
:1007A0003E834F83588789E0E82EF12CEC0EFD1E26
:1007B000CE010196B7010E9446068E010F5E1F4FC3
:1007C000CE010596B8010E9446068985823040F028
:1007D0008989823028F0C701B8010E94BE0601C095
:1007E0008FEF6896E6E00C948E15A8E1B0E0EBEF91
:1007F000F3E00C94721569837A838B839C832D8339
:100800003E834F83588789E0E82EF12CEC0EFD1EC5
:10081000CE010196B7010E9446068E010F5E1F4F62
:10082000CE010596B8010E9446068985823040F0C7
:100830008989823028F0C701B8010E94BE0601C034
:100840008FEF6896E6E00C948E15A8E1B0E0EBE23D
:10085000F4E00C94721569837A838B839C832D83D7
:100860003E834F83588789E0E82EF12CEC0EFD1E65
:10087000CE010196B7010E9446068E010F5E1F4F02
:10088000CE010596B8010E9446068985823040F067
:100890008989823028F0C701B8010E94BE0601C0D4
:1008A00081E06896E6E00C948E15ACE0B0E0EBE5F4
:1008B000F4E00C94761569837A838B839C83CE0154
:1008C0000196BE016B5F7F4F0E9446068D8182308C
:1008D00061F1823050F1843021F48E81882351F10E
:1008E0002EC02F81388537FD20C06E812F31310514
:1008F0001CF06623F9F023C08EE190E0821B930B7D
:1009000029853A854B855C8504C056954795379572
:1009100027958A95D2F76623B1F05095409530958A
:1009200021953F4F4F4F5F4F0EC020E030E040E039
:1009300050E009C02FEF3FEF4FEF5FE704C020E02A
:1009400030E040E050E8B901CA012C96E2E00C9496
:100950009215A8E0B0E0EFEAF4E00C946E157B018C
:100960008C01611571058105910519F482E0898377
:1009700060C083E089838EE1C82ED12CDC82CB82DB
:10098000ED82FE820F831887C801B7010E942205FD
:10099000FC013197F7FF3BC0222733272E1B3F0B6B
:1009A00057016801022E04C0D694C794B794A79447
:1009B0000A94D2F740E050E060E070E081E090E01F
:1009C000A0E0B0E004C0880F991FAA1FBB1F2A95A2
:1009D000D2F70197A109B1098E219F21A023B1234C
:1009E0000097A105B10521F041E050E060E070E022
:1009F0004A295B296C297D294D835E836F83788723
:100A00008EE190E08E1B9F0B9C838B8312C03097EE
:100A100081F00E2E04C0EE0CFF1C001F111F0A9463
:100A2000D2F7ED82FE820F831887CE1ADF0ADC82AE
:100A3000CB821A82CE0101960E9471052896EAE0C7
:100A40000C948A15EF92FF920F931F937B018C01F8
:100A500080E0E81680E0F80681E0080780E01807EB
:100A600088F48FEFE816F1040105110531F028F044
:100A700088E090E0A0E0B0E017C080E090E0A0E067
:100A8000B0E012C080E0E81680E0F80680E00807D9
:100A900081E0180728F088E190E0A0E0B0E004C011
:100AA00080E190E0A0E0B0E020E230E040E050E003
:100AB000281B390B4A0B5B0B04C016950795F7945E
:100AC000E7948A95D2F7F701EB55FF4F8081281BF9
:100AD000310941095109C9011F910F91FF90EF9010
:100AE0000895DF92EF92FF920F931F93FC01E48031
:100AF000F58006811781D1808081823048F480E0C2
:100B000090E0A0E1B0E0E82AF92A0A2B1B2BA5C04F
:100B1000843009F49FC0823021F4EE24FF24870141
:100B200005C0E114F1040105110519F4E0E0F0E05D
:100B300096C0628173819FEF623879070CF05BC0C9
:100B400022E83FEF261B370B2A3131052CF020E03D
:100B500030E040E050E02AC0B801A701022E04C0F6
:100B600076956795579547950A94D2F781E090E07E
:100B7000A0E0B0E004C0880F991FAA1FBB1F2A95F0
:100B8000D2F70197A109B1098E219F21A023B1239A
:100B90000097A105B10521F081E090E0A0E0B0E070
:100BA0009A01AB01282B392B4A2B5B2BDA01C901A7
:100BB0008F779070A070B07080349105A105B10559
:100BC00039F427FF09C0205C3F4F4F4F5F4F04C0EF
:100BD000215C3F4F4F4F5F4FE0E0F0E02030A0E05E
:100BE0003A07A0E04A07A0E45A0710F0E1E0F0E07D
:100BF00079018A0127C06038710564F5FB01E1586D
:100C0000FF4FD801C7018F779070A070B07080340B
:100C10009105A105B10539F4E7FE0DC080E490E02F
:100C2000A0E0B0E004C08FE390E0A0E0B0E0E80E08
:100C3000F91E0A1F1B1F17FF05C016950795F7948D
:100C4000E794319687E016950795F794E7948A958F
:100C5000D1F705C0EE24FF248701EFEFF0E06E2FFF
:100C6000679566276795902F9F77D794DD24D79453
:100C70008E2F8695492F462B582F5D29B701CA0123
:100C80001F910F91FF90EF90DF900895FC01DB0121
:100C9000408151812281622F6F7770E0221F2227CD
:100CA000221F9381892F880F822B282F30E0991FD4
:100CB0009927991F11969C93119721153105A9F534
:100CC000411551056105710511F482E037C082E8D4
:100CD0009FEF13969C938E9312979A01AB0167E056
:100CE000220F331F441F551F6A95D1F783E08C9361
:100CF0000DC0220F331F441F551F12968D919C91DA
:100D00001397019713969C938E931297203080E04F
:100D1000380780E0480780E4580758F314962D936D
:100D20003D934D935C93179708952F3F310579F4C8
:100D3000411551056105710519F484E08C930895FE
:100D400064FF03C081E08C9312C01C9210C02F5727
:100D5000304013963C932E93129783E08C9387E058
:100D6000440F551F661F771F8A95D1F7706414963C
:100D70004D935D936D937C93179708951F93DC01BA
:100D8000FB019C91923008F447C08081823008F4C6
:100D900043C0943051F411961C91843099F58181AF
:100DA000682F70E0611B71093FC0843021F09230E0
:100DB00031F48230B9F18181882389F12DC01196F7
:100DC0001C9111978230F1F081811817D9F4129695
:100DD0002D913C911397828193818217930794F010
:100DE00028173907BCF014968D919D910D90BC91F8
:100DF000A02D2481358146815781281739074A075C
:100E00005B0718F4112341F00AC082179307A40767
:100E1000B50740F4112319F061E070E005C06FEFF1
:100E20007FEF02C060E070E0CB011F910895DF9377
:100E3000CF93CDB7DEB7A3E5B0E0E3E5F0E0808186
:100E40008F7B8C93A3E5B0E0E3E5F0E08081877FC2
:100E50008C93E2E5F0E08DE58083A3E5B0E0E3E587
:100E6000F0E08081887F8C93A3E5B0E0E3E5F0E0DB
:100E7000808185608C93A9E5B0E0E9E5F0E08081B0
:100E800081608C93CF91DF910895DF93CF9300D051
:100E90000F92CDB7DEB79B838A8319828A819B81AB
:100EA000009739F08A819B819093B7018093B601B6
:100EB00002C082E0898389810F900F900F90CF91BB
:100EC000DF910895DF93CF9300D00F92CDB7DEB7B7
:100ED0009B838A8319828A819B81009739F08A815A
:100EE0009B819093B9018093B80102C082E089830D
:100EF00089810F900F900F90CF91DF910895DF932C
:100F0000CF930F92CDB7DEB78983E2E5F0E0898118
:100F100080830F90CF91DF910895DF93CF93CDB76A
:100F2000DEB7E3E5F0E01082E2E5F0E01082CF9179
:100F3000DF910895DF93CF93CDB7DEB7A5E4B0E09E
:100F4000E5E4F0E080818F7B8C93A5E4B0E0E5E4FC
:100F5000F0E08081877F8C93E4E4F0E08DE580838E
:100F6000A5E4B0E0E5E4F0E08081887F8C93A5E41F
:100F7000B0E0E5E4F0E0808187608C93A9E5B0E023
:100F8000E9E5F0E0808180648C93CF91DF91089552
:100F9000DF93CF9300D00F92CDB7DEB79B838A83C8
:100FA00019828A819B81009739F08A819B81909375
:100FB000BB018093BA0102C082E0898389810F90CE
:100FC0000F900F90CF91DF910895DF93CF9300D0D2
:100FD0000F92CDB7DEB79B838A8319828A819B816A
:100FE000009739F08A819B819093BD018093BC0169
:100FF00002C082E0898389810F900F900F90CF917A
:10100000DF910895DF93CF930F92CDB7DEB7898339
:10101000E4E4F0E0898180830F90CF91DF9108951F
:10102000DF93CF93CDB7DEB7E5E4F0E01082E4E4E0
:10103000F0E01082CF91DF910895DF93CF93CDB789
:10104000DEB7AFE4B0E0EFE4F0E0808180688C933D
:10105000AFE4B0E0EFE4F0E080818F7B8C93AFE40D
:10106000B0E0EFE4F0E080818E7F8C93AFE4B0E0FD
:10107000EFE4F0E0808182608C93AEE4B0E0EEE4D7
:10108000F0E0808188608C93AEE4B0E0EEE4F0E0C4
:10109000808180618C93E6E4F0E080E29EE49183BD
:1010A0008083EAE4F0E011821082AEE4B0E0EEE486
:1010B000F0E080818E7F8C93AEE4B0E0EEE4F0E06F
:1010C000808182608C93AEE4B0E0EEE4F0E0808159
:1010D0008B7F8C93CF91DF910895DF93CF93CDB722
:1010E000DEB7EFE4F0E01082EEE4F0E01082ECE432
:1010F000F0E011821082CF91DF910895DF93CF93BA
:1011000000D0CDB7DEB79A838983EAE4F0E0898125
:101110009A81918380830F900F90CF91DF910895F2
:10112000DF93CF93CDB7DEB7EAE4F0E08081918121
:10113000CF91DF910895DF93CF9300D0CDB7DEB785
:101140009A838983ECE4F0E089819A81918380839A
:101150000F900F90CF91DF910895DF93CF93CDB78C
:10116000DEB7ECE4F0E080819181CF91DF910895CA
:10117000DF93CF93CDB7DEB7AFE4B0E0EFE4F0E0BC
:1011800080818E7F8C93AFE4B0E0EFE4F0E080816B
:101190008D7F8C93AEE4B0E0EEE4F0E08081877F59
:1011A0008C93AEE4B0E0EEE4F0E080818F7E8C932F
:1011B000AEE4B0E0EEE4F0E080818E7F8C93AEE4AC
:1011C000B0E0EEE4F0E0808182608C93AEE4B0E0C9
:1011D000EEE4F0E080818B7F8C93AEE4B0E0EEE44F
:1011E000F0E0808180648C93ECE4F0E01182108266
:1011F000E6E4F0E011821082A9E5B0E0E9E5F0E074
:10120000808180628C93CF91DF910895DF93CF939B
:1012100000D00F92CDB7DEB79B838A8319828A8173
:101220009B81009739F08A819B819093BF018093C5
:10123000BE0102C082E0898389810F900F900F90D8
:10124000CF91DF910895DF93CF9300D000D0CDB739
:10125000DEB78A8319828A81282F30E03C832B8372
:101260008B819C81009731F02B813C8121303105AD
:1012700049F010C0AEE4B0E0EEE4F0E080818F7B96
:101280008C930AC0AEE4B0E0EEE4F0E080818064CC
:101290008C9302C081E0898389810F900F900F9019
:1012A0000F90CF91DF910895DF93CF93CDB7DEB745
:1012B000E6E4F0E080819181CF91DF910895DF93A2
:1012C000CF93CDB7DEB7A9E5B0E0E9E5F0E08081E6
:1012D0008F7D8C93CF91DF910895DF93CF93CDB71E
:1012E000DEB7A1E4B0E0E1E4F0E0808188608C93B7
:1012F000CF91DF910895DF93CF93CDB7DEB7A1E40F
:10130000B0E0E1E4F0E0808188618C93E1E4F0E01A
:101310001082CF91DF910895DF93CF9300D0CDB7A6
:10132000DEB78A8319828A81883080F4A1E4B0E034
:10133000E1E4F0E08081887F8C93A1E4B0E0E1E417
:10134000F0E090818A81892B8C9302C081E08983AF
:1013500089810F900F90CF91DF9108951F920F9286
:101360000FB60F9211242F933F934F935F936F9378
:101370007F938F939F93AF93BF93EF93FF93DF93ED
:10138000CF93CDB7DEB78091C0018F5F8093C0014E
:101390008091C0018F3189F41092C001E4E4F0E043
:1013A0008DE580838091BA019091BB01009729F06F
:1013B000E091BA01F091BB010995CF91DF91FF91C6
:1013C000EF91BF91AF919F918F917F916F915F91BD
:1013D0004F913F912F910F900FBE0F901F90189536
:1013E0001F920F920FB60F9211242F933F934F939A
:1013F0005F936F937F938F939F93AF93BF93EF937D
:10140000FF93DF93CF93CDB7DEB78091C1018F5F9C
:101410008093C1018091C1018F3189F41092C10183
:10142000E2E5F0E08DE580838091B6019091B7010F
:10143000009729F0E091B601F091B7010995CF919D
:10144000DF91FF91EF91BF91AF919F918F917F912C
:101450006F915F914F913F912F910F900FBE0F9021
:101460001F9018951F920F920FB60F9211242F9371
:101470003F934F935F936F937F938F939F93AF931C
:10148000BF93EF93FF93DF93CF93CDB7DEB78091F8
:10149000C2018F5F8093C2018091C2018F3159F4E4
:1014A0008091B8019091B901009729F0E091B801BD
:1014B000F091B9010995CF91DF91FF91EF91BF9123
:1014C000AF919F918F917F916F915F914F913F91DC
:1014D0002F910F900FBE0F901F9018951F920F9293
:1014E0000FB60F9211242F933F934F935F936F93F7
:1014F0007F938F939F93AF93BF93EF93FF93DF936C
:10150000CF93CDB7DEB78091BE019091BF01009718
:1015100029F0E091BE01F091BF010995CF91DF91D3
:10152000FF91EF91BF91AF919F918F917F916F91BB
:101530005F914F913F912F910F900FBE0F901F9091
:101540001895DF93CF93CDB7DEB7EAE3F0E08FEFE6
:101550008083E7E3F0E08FEF8083E4E3F0E08FE067
:101560008083E1E3F0E080E28083EBE3F0E083E07E
:101570008083E8E3F0E01082E5E3F0E08FEF808322
:10158000E2E3F0E01082CF91DF910895DF93CF93F3
:10159000CDB7DEB7AFE5B0E0EFE5F0E08081806881
:1015A0008C93CF91DF910895DF93CF93CDB7DEB7C2
:1015B000AFE5B0E0EFE5F0E080818F778C93CF91DD
:1015C000DF910895DF93CF93CDB7DEB728970FB69D
:1015D000F894DEBF0FBECDBF8A836B834C83198224
:1015E0008B81883008F0F4C08C81813009F072C0A2
:1015F0008A81282F30E038872F838F81988581302A
:10160000910549F12F813885223031052CF48F81E5
:101610009885009761F05BC02F81388522303105B5
:1016200071F18F81988583309105E9F150C0AAE36B
:10163000B0E0EAE3F0E08081482F8B81282F30E092
:1016400081E090E0022E02C0880F991F0A94E2F711
:10165000842B8C93BFC0A7E3B0E0E7E3F0E0808188
:10166000482F8B81282F30E081E090E0022E02C0CD
:10167000880F991F0A94E2F7842B8C93ABC0A4E3E4
:10168000B0E0E4E3F0E08081482F8B81282F30E048
:1016900081E090E0022E02C0880F991F0A94E2F7C1
:1016A000842B8C9397C0A1E3B0E0E1E3F0E080816C
:1016B000482F8B81282F30E081E090E0022E02C07D
:1016C000880F991F0A94E2F7842B8C9383C081E0E2
:1016D000898380C08C81882309F077C08A81282F74
:1016E00030E03E832D838D819E818130910559F1BB
:1016F0002D813E81223031052CF48D819E81009711
:1017000069F060C02D813E812230310589F18D81E3
:101710009E818330910509F440C054C0AAE3B0E033
:10172000EAE3F0E08081482F8B81282F30E081E0D0
:1017300090E0022E02C0880F991F0A94E2F780956C
:1017400084238C9347C0A7E3B0E0E7E3F0E0808117
:10175000482F8B81282F30E081E090E0022E02C0DC
:10176000880F991F0A94E2F7809584238C9332C0E6
:10177000A4E3B0E0E4E3F0E08081482F8B81282FE0
:1017800030E081E090E0022E02C0880F991F0A9499
:10179000E2F7809584238C931DC0A1E3B0E0E1E3E0
:1017A000F0E08081482F8B81282F30E081E090E0AD
:1017B000022E02C0880F991F0A94E2F780958423B5
:1017C0008C9308C081E0898305C081E0898302C0D1
:1017D00081E08983898128960FB6F894DEBF0FBE19
:1017E000CDBFCF91DF910895DF93CF9300D000D08C
:1017F0000F92CDB7DEB78A836B8319828A81282F37
:1018000030E03D832C838C819D8181309105D1F026
:101810002C813D81223031052CF48C819D810097F3
:1018200061F01FC02C813D812230310581F08C8117
:101830009D818330910581F014C0EAE3F0E08B8153
:10184000808311C0E7E3F0E08B8180830CC0E4E388
:10185000F0E08B81808307C0E1E3F0E08B8180833F
:1018600002C081E0898389810F900F900F900F90C3
:101870000F90CF91DF910895DF93CF93CDB7DEB76F
:1018800028970FB6F894DEBF0FBECDBF8A836B8357
:101890004C8319828B81883008F0F4C08C818130B0
:1018A00009F072C08A81282F30E038872F838F811A
:1018B00098858130910549F12F8138852230310595
:1018C0002CF48F819885009761F05BC02F8138855B
:1018D0002230310571F18F81988583309105E9F1CE
:1018E00050C0ABE3B0E0EBE3F0E08081482F8B81A8
:1018F000282F30E081E090E0022E02C0880F991F6F
:101900000A94E2F7842B8C93BFC0A8E3B0E0E8E32D
:10191000F0E08081482F8B81282F30E081E090E03B
:10192000022E02C0880F991F0A94E2F7842B8C9331
:10193000ABC0A5E3B0E0E5E3F0E08081482F8B8108
:10194000282F30E081E090E0022E02C0880F991F1E
:101950000A94E2F7842B8C9397C0A2E3B0E0E2E311
:10196000F0E08081482F8B81282F30E081E090E0EB
:10197000022E02C0880F991F0A94E2F7842B8C93E1
:1019800083C081E0898380C08C81882309F077C07F
:101990008A81282F30E03E832D838D819E81813086
:1019A000910559F12D813E81223031052CF48D8134
:1019B0009E81009769F060C02D813E812230310503
:1019C00089F18D819E818330910509F440C054C016
:1019D000ABE3B0E0EBE3F0E08081482F8B81282F70
:1019E00030E081E090E0022E02C0880F991F0A9437
:1019F000E2F7809584238C9347C0A8E3B0E0E8E346
:101A0000F0E08081482F8B81282F30E081E090E04A
:101A1000022E02C0880F991F0A94E2F78095842352
:101A20008C9332C0A5E3B0E0E5E3F0E08081482F7D
:101A30008B81282F30E081E090E0022E02C0880FD9
:101A4000991F0A94E2F7809584238C931DC0A2E32A
:101A5000B0E0E2E3F0E08081482F8B81282F30E076
:101A600081E090E0022E02C0880F991F0A94E2F7ED
:101A7000809584238C9308C081E0898305C081E030
:101A8000898302C081E08983898128960FB6F89402
:101A9000DEBF0FBECDBFCF91DF910895DF93CF930F
:101AA00000D000D00F92CDB7DEB78A836B83198246
:101AB0008A81282F30E03D832C838C819D81813069
:101AC0009105D1F02C813D81223031052CF48C819F
:101AD0009D81009761F01FC02C813D81223031052E
:101AE00081F08C819D818330910581F014C0EBE3FE
:101AF000F0E08B81808311C0E8E3F0E08B8180838C
:101B00000CC0E5E3F0E08B81808307C0E2E3F0E006
:101B10008B81808302C081E0898389810F900F903F
:101B20000F900F900F90CF91DF910895DF93CF9397
:101B3000CDB7DEB727970FB6F894DEBF0FBECDBF87
:101B40008A836B835D834C8319828C819D8100978E
:101B500009F477C08B81883008F073C08A81282F00
:101B600030E03F832E834E815F814130510559F132
:101B70008E819F818230910534F42E813F81211521
:101B8000310569F05CC04E815F814230510579F1C9
:101B90008E819F818330910509F43DC050C0E9E3F7
:101BA000F0E08081282F30E08B81882F90E0A90120
:101BB00002C0559547958A95E2F7CA018170EC817C
:101BC000FD8180833EC0E6E3F0E08081282F30E095
:101BD0008B81882F90E0A90102C0559547958A9581
:101BE000E2F7CA018170EC81FD8180832AC0E3E3C2
:101BF000F0E08081282F30E08B81882F90E0A901D0
:101C000002C0559547958A95E2F7CA018170EC812B
:101C1000FD81808316C0E0E3F0E08081282F30E072
:101C20008B81882F90E0A90102C0559547958A9530
:101C3000E2F7CA018170EC81FD81808302C081E0FE
:101C40008983898127960FB6F894DEBF0FBECDBF7A
:101C5000CF91DF910895DF93CF93CDB7DEB7A297F1
:101C60000FB6F894DEBF0FBECDBF8FEF8983CE01D4
:101C700005969F8F8E8FE6EAF1E0F9A3E8A3F0E1E5
:101C8000FAA3E8A1F9A1008088A199A1019699A3DE
:101C900088A3EE8DFF8D00828E8D9F8D01969F8F84
:101CA0008E8F9AA191509AA3EAA1EE2351F71D8A33
:101CB00081E08E8B82E08F8B83E0888F84E0898F38
:101CC00085E08A8F86E08B8F87E08C8F1B8276C0C1
:101CD0008B81282F30E0CE014596FC01E20FF31FE7
:101CE000908182E0692F40E00E943C0C1A8251C032
:101CF0008A81282F30E0CE014996FC01E20FF31FC4
:101D000090819E012C5F3F4F82E0692FA9010E94C4
:101D1000960D8C818823D1F511C08A81282F30E05F
:101D2000CE014996FC01E20FF31F90819E012C5FCA
:101D30003F4F82E0692FA9010E94960D8C81882374
:101D400061F38A81282F30E08B81482F50E0220FE9
:101D5000331F220F331FCE010196820F931F840F72
:101D6000951FFC013496808189838B81282F30E078
:101D7000CE014596FC01E20FF31F908182E0692FAE
:101D800041E00E943C0CF981FD8F1EC08A818F5F6B
:101D90008A838A81843008F4ABCF8B81282F30E08E
:101DA000CE014596FC01E20FF31F908182E0692F7E
:101DB00041E00E943C0C8B818F5F8B838B81843050
:101DC00008F486CF89818D8F8D8DA2960FB6F894F9
:101DD000DEBF0FBECDBFCF91DF910895DF93CF93CC
:101DE000CDB7DEB72F970FB6F894DEBF0FBECDBFCD
:101DF0008F8781E065E040E00E943C0C81E066E076
:101E000040E00E943C0C80E06F850E944E0D81E016
:101E100067E041E00E943C0C80E090E0A0E0B0E48C
:101E20008B879C87AD87BE876B857C858D859E85DE
:101E300020E030E04AEF54E40E941F02DC01CB01B5
:101E40008F839887A987BA876F81788589859A85D6
:101E500020E030E040E85FE30E94250488232CF472
:101E600081E090E09E838D833FC06F817885898576
:101E70009A8520E03FEF4FE757E40E94C50318160C
:101E80004CF56B857C858D859E8520E030E040E2B9
:101E900051E40E941F02DC01CB01BC01CD010E9474
:101EA0004900DC01CB019E838D830FC088EC90E05C
:101EB0009C838B838B819C810197F1F79C838B831F
:101EC0008D819E8101979E838D838D819E81009758
:101ED00069F714C06F81788589859A850E944900C9
:101EE000DC01CB019E838D838D819E819A838983C2
:101EF00089819A810197F1F79A83898381E067E06C
:101F000040E00E943C0C2F960FB6F894DEBF0FBE47
:101F1000CDBFCF91DF910895DF93CF93CDB7DEB7DB
:101F20002F970FB6F894DEBF0FBECDBF8F8781E02D
:101F300065E041E00E943C0C81E066E040E00E94E8
:101F40003C0C80E06F850E944E0D81E067E041E02F
:101F50000E943C0C80E090E0A0E0B0E48B879C877E
:101F6000AD87BE876B857C858D859E8520E030E0C2
:101F70004AEF54E40E941F02DC01CB018F83988753
:101F8000A987BA876F81788589859A8520E030E0B6
:101F900040E85FE30E94250488232CF481E090E070
:101FA0009E838D833FC06F81788589859A8520E0E7
:101FB0003FEF4FE757E40E94C50318164CF56B85B9
:101FC0007C858D859E8520E030E040E251E40E94D2
:101FD0001F02DC01CB01BC01CD010E944900DC01E4
:101FE000CB019E838D830FC088EC90E09C838B8314
:101FF0008B819C810197F1F79C838B838D819E81DE
:1020000001979E838D838D819E81009769F714C00F
:102010006F81788589859A850E944900DC01CB0112
:102020009E838D838D819E819A83898389819A8104
:102030000197F1F79A83898381E067E040E00E948D
:102040003C0C2F960FB6F894DEBF0FBECDBFCF91DC
:10205000DF910895DF93CF93CDB7DEB72E970FB6FC
:10206000F894DEBF0FBECDBF80E090E0A0E2B2E406
:102070008B879C87AD87BE876B857C858D859E858C
:1020800020E030E04AEF54E40E941F02DC01CB0163
:102090008F839887A987BA876F81788589859A8584
:1020A00020E030E040E85FE30E94250488232CF420
:1020B00081E090E09E838D833FC06F817885898524
:1020C0009A8520E03FEF4FE757E40E94C5031816BA
:1020D0004CF56B857C858D859E8520E030E040E267
:1020E00051E40E941F02DC01CB01BC01CD010E9422
:1020F0004900DC01CB019E838D830FC088EC90E00A
:102100009C838B838B819C810197F1F79C838B83CC
:102110008D819E8101979E838D838D819E81009705
:1021200069F714C06F81788589859A850E94490076
:10213000DC01CB019E838D838D819E819A8389836F
:1021400089819A810197F1F79A83898388E30E94B4
:10215000EE0E8CE00E94EE0E81E00E94EE0E2E96B6
:102160000FB6F894DEBF0FBECDBFCF91DF910895BB
:10217000DF93CF9300D00F92CDB7DEB78A836B8306
:102180008B81882F90E000249695879507949695EB
:1021900087950794982F802D982F8A81890F89839E
:1021A000898180580E94EE0E0F900F900F90CF9172
:1021B000DF910895DF93CF93CDB7DEB727970FB6A2
:1021C000F894DEBF0FBECDBF9C838B836D834E839F
:1021D0002F838D81882F90E0880F991F880F991F7A
:1021E000880F991F8A838A81805C0E94EE0E198273
:1021F0000EC08981282F30E08B819C81FC01E20F89
:10220000F31F80810E948C0F89818F5F8983898170
:10221000883078F38E816F810E94B8108D810E9482
:102220008C0F27960FB6F894DEBF0FBECDBFCF91AF
:10223000DF910895DF93CF9300D00F92CDB7DEB733
:102240009B838A8319820EC08981282F30E08A817E
:102250009B81FC01E20FF31F80810E948C0F89811A
:102260008F5F89838981282F30E08A819B81FC01DF
:10227000E20FF31F8081882339F70F900F900F90A2
:10228000CF91DF910895DF93CF93CDB7DEB76797F6
:102290000FB6F894DEBF0FBECDBF9F8B8E8B84E14F
:1022A000FE013296DF01982F1D929A95E9F7198267
:1022B0008E899F89009749F580E30E948C0F41C069
:1022C0008981E82FF0E08E899F892AE030E0B9010A
:1022D0000E945215AC01405D5F4F9F01220F331FDA
:1022E000CE010196820F931FFC01319651834083EA
:1022F0008E899F892AE030E0B9010E945215CB01F6
:102300009F8B8E8B89818F5F89838E899F890097B0
:10231000B9F614C08981882F90E001979C01220FA3
:10232000331FCE010196820F931FFC0131968081ED
:1023300091810E948C0F89818150898389818823B2
:1023400049F767960FB6F894DEBF0FBECDBFCF91A9
:10235000DF910895DF93CF9300D00F92CDB7DEB712
:102360008B838B81882F90E0A0E0B0E0BC01CD0191
:102370000E94A904DC01CB01BC01CD0120E030E0CA
:1023800048EC52E40E941903DC01CB01BC01CD01F1
:1023900020E030E44CE956E40E941F02DC01CB014E
:1023A000BC01CD010E944900DC01CB019A838983E5
:1023B0000E941D088B81882319F40E946D080CC0AF
:1023C0008B81843629F480E29EE40E947E0804C05A
:1023D00089819A810E947E080F900F900F90CF9173
:1023E000DF910895DF93CF93CDB7DEB760970FB637
:1023F000F894DEBF0FBECDBF0E94900888519C4F5D
:10240000988B8F870E941D088F8598892EE48032D3
:10241000920708F483C080E29EE4988B8F8780E265
:102420009EE40E947E0881E090E00E94EE0E80E62D
:1024300090E00E941A1180E090E0AAE7B4E48B8754
:102440009C87AD87BE876B857C858D859E8520E0CA
:1024500030E04AEF54E40E941F02DC01CB018F837D
:102460009887A987BA876F81788589859A8520E0C2
:1024700030E040E85FE30E94250488232CF481E0EB
:1024800090E09E838D833FC06F81788589859A8592
:1024900020E03FEF4FE757E40E94C50318164CF5C4
:1024A0006B857C858D859E8520E030E040E251E49F
:1024B0000E941F02DC01CB01BC01CD010E9449003A
:1024C000DC01CB019E838D830FC088EC90E09C8360
:1024D0008B838B819C810197F1F79C838B838D810A
:1024E0009E8101979E838D838D819E81009769F7E0
:1024F00019C06F81788589859A850E944900DC0121
:10250000CB019E838D838D819E819A83898389816E
:102510009A810197F1F79A83898304C08F859889FE
:102520000E947E0860960FB6F894DEBF0FBECDBF46
:10253000CF91DF910895DF93CF9300D0CDB7DEB771
:102540000E949008885E93409A83898389819A814A
:10255000992324F41A8219820E946D0889819A8134
:102560000E947E080F900F90CF91DF910895DF9326
:10257000CF93CDB7DEB70E946D08CF91DF9108955C
:10258000DF93CF93CDB7DEB781E060E041E00E94FA
:10259000E20A81E061E041E00E94E20A81E062E05B
:1025A00041E00E94E20A81E063E041E00E94E20A29
:1025B000CF91DF910895DF93CF930F92CDB7DEB720
:1025C00089838981813031F481E062E041E00E94B9
:1025D0003C0C08C08981882329F481E062E040E056
:1025E0000E943C0C0F90CF91DF910895DF93CF9321
:1025F0000F92CDB7DEB789838981813031F481E0D4
:1026000063E041E00E943C0C08C08981882329F4E2
:1026100081E063E040E00E943C0C0F90CF91DF919D
:102620000895DF93CF93CDB7DEB781E062E040E05D
:102630000E943C0C81E063E040E00E943C0CCF91A2
:10264000DF910895DF93CF930F92CDB7DEB78983E3
:102650008981813031F481E060E041E00E943C0CEE
:1026600005C081E060E040E00E943C0C0F90CF91FB
:10267000DF910895DF93CF930F92CDB7DEB78983B3
:102680008981813031F481E061E041E00E943C0CBD
:1026900005C081E061E040E00E943C0C0F90CF91CA
:1026A000DF910895DF93CF9300D0CDB7DEB7898354
:1026B0006A8381E0698141E00E94E20A8A81813077
:1026C00031F481E0698141E00E943C0C05C081E069
:1026D000698140E00E943C0C0F900F90CF91DF91F8
:1026E0000895DF93CF93CDB7DEB761970FB6F89417
:1026F000DEBF0FBECDBF19821A821B828FEF8C8383
:102700001D821E8281E08F83188619861A861B8699
:102710000E94A10A0E942A100E94C60A87E395E13E
:102720000E94450784E495E10E94C8078091C30197
:10273000882309F06AC10E942B0E8C838E81882326
:1027400001F58C818134E9F08F81813029F484E6B0
:1027500090E00E941A111F828C818F3FA1F1898124
:10276000882F90E09C01220F331FC901880F991F09
:10277000880F991F820F931F982F8C81890F89834F
:1027800022C08E818130F9F48C818134E1F08F8117
:10279000813029F48DE690E00E941A111F828C810D
:1027A0008F3F89F08A81882F90E09C01220F331F90
:1027B000C901880F991F880F991F820F931F982FA7
:1027C0008C81890F8A838C818F3F39F18C81813490
:1027D00021F18B81853608F58D8161E00E94B8106A
:1027E0008C81882F90E00E9443118E81823089F481
:1027F0008B81882F90E09C01220F331FC901880F25
:10280000991F880F991F820F931F982F8C81890F12
:102810008B838D818F5F8D8314C08C81813489F48B
:102820008E818F5F8E838E81833018F081E0888760
:102830001E8281E00E94EE0E1D8281E08F838FEF69
:102840008C838A81833031F08A81873019F08A81C4
:10285000883081F48E81823069F48F81813081F4F7
:102860008885813069F08BE790E00E941A111B8205
:102870001F8206C08E81823019F481E088871E8213
:102880008885813009F0C1C018868981282F30E001
:10289000398B288B888999898230910509F44EC03B
:1028A000288939892F3F310509F49FC08889998982
:1028B0008130910509F09BC08A81282F30E03F8745
:1028C0002E878E859F858330910509F12E853F8562
:1028D000243031055CF48E859F858130910589F027
:1028E0002E853F852230310579F01BC08E859F856E
:1028F0008430910581F02E853F852F3F310571F0A1
:1029000010C00E94F2117FC00E949B127CC08B817C
:102910000E94AA1178C00E94B71275C081E08E8310
:1029200072C081E08093C30181E00E94EE0E86E8D0
:1029300090E00E941A110E949A0765C08A81282F90
:1029400030E03D872C878C859D858730910581F10E
:102950002C853D85283031055CF48C859D8585303E
:102960009105B1F02C853D8526303105C9F030C088
:102970008C859D858930910509F12C853D8529300F
:102980003105CCF08C859D858F3F9105F1F020C0FD
:1029900081E08093C4011092C5010E94170733C0E3
:1029A0001092C40181E08093C5010E9417072BC0DB
:1029B00081E0898728C081E08A8725C01092C40100
:1029C0001092C50181E08B871EC081E08E831BC001
:1029D00081E08093C30181E00E94EE0E86E890E0E2
:1029E0000E941A110E949A070EC01E820CC081E03C
:1029F0008093C30181E00E94EE0E84E990E00E9482
:102A00001A110E949A0719821A828091C40181309A
:102A100039F40E9411138091A5010E94DB1217C0A6
:102A20008091C501813039F40E9411138091A50174
:102A30000E94F6120CC08B85813049F40E9411135C
:102A40001B861092C4011092C5010E948D078985D2
:102A5000813021F48B810E94221319868A8581306E
:102A600009F064CE8B810E943A131A865FCEDF9301
:102A7000CF93CDB7DEB78091A50191E089278093F0
:102A8000A501CF91DF910895DF93CF93CDB7DEB746
:102A90001092C30181E00E94EE0E0E941008CF91B7
:102AA000DF910895AA1BBB1B51E107C0AA1FBB1FE2
:102AB000A617B70710F0A61BB70B881F991F5A95CA
:102AC000A9F780959095BC01CD0108952F923F9272
:102AD0004F925F926F927F928F929F92AF92BF922E
:102AE000CF92DF92EF92FF920F931F93CF93DF93DA
:102AF000CDB7DEB7CA1BDB0B0FB6F894DEBF0FBE37
:102B0000CDBF09942A88398848885F846E847D8483
:102B10008C849B84AA84B984C884DF80EE80FD8085
:102B20000C811B81AA81B981CE0FD11D0FB6F894FB
:0E2B3000DEBF0FBECDBFED010895F894FFCFBC
:102B3E0046464600456E74657220496400456E74C3
:102B4E00657220436F6D6D616E6400456E746572C3
:102B5E002044617461004572726F7220436F6D6D17
:102B6E00616E64004572726F72204944000000006D
:102B7E00000000000000010202030303030404042A
:102B8E0004040404040505050505050505050505EC
:102B9E0005050505050606060606060606060606CC
:102BAE0006060606060606060606060606060606B7
:102BBE00060606060607070707070707070707079C
:102BCE000707070707070707070707070707070787
:102BDE000707070707070707070707070707070777
:102BEE000707070707070707070707070707070767
:102BFE00070707070708080808080808080808084C
:102C0E000808080808080808080808080808080836
:102C1E000808080808080808080808080808080826
:102C2E000808080808080808080808080808080816
:102C3E000808080808080808080808080808080806
:102C4E0008080808080808080808080808080808F6
:102C5E0008080808080808080808080808080808E6
:102C6E0008080808080808080808080808080808D6
:102C7E000808080808010708092F0405062A01029A
:062C8E00032D41003D2B67
:00000001FF
